:400000000080002011000000610F0000610F000008B5044B1A6803F53F5302331A6000F0A7FF00BFFA46004010B5054C237833B9044B13B10448AFF300800123237010BDF1
:400040004881FF1F00000000943C0000084B10B51BB108490848AFF300800848036803B910BD074B002BFBD0BDE81040184700BF000000004C81FF1F943C0000C880FF1F62
:400080000000000030B583B001F0AEFE044610F01E0F06D00021012001F0A8F90F4801F039F904F0200404F0FF059CB101F096FE0B4B18700A280AD00A4B1B88ADF8043053
:4000C00002A901F8040D084803F0C5FD02E00122064B1A60002DD7D103B030BD9C3C00007C81FF1F983C00008081FF1FB481FF1FF8B562B601F06CF900F07AF801F0A8FBB7
:4001000001F0B8FD00F080FC01F016FE01F0F4FE01F066FF01F054FE324801F089FF0127002500F0CFFF98B100F0A8F909E000F091FC30B1284600F093FC0135632D00DD7D
:40014000002500F0BFFF0028F1D100F097F91DE000F0C0FF10B100F0CFF917E000F0C2FF10B100F0D1F911E000F0C4FF70B1012F02D0022F03D101E0022700E0012738469E
:4001800000F088FC4FF4FA7000F0BEFF384600F081FC00F039F804467A2816D02A2814D000F0B0F8264609E000F02EF804467A2804D02A2802D000F0A5F826462A2CF3D163
:4001C000304600F05FFA00F039FA074B1B68002BA7D0064C204600F031FA00232370024A13609EE785000000B481FF1F8081FF1F08B5012001F018F9012001F021F90120B5
:4002000001F02AF908BD00BF08B5002001F00CF9052000F079FF01F041F920B9012001F003F9232008BD01F023F920B9012001F0FBF8392008BD01F02BF920B9012001F0A3
:40024000F3F8362008BD01F01BF920B9012001F0EBF8332008BD012001F0E6F8002001F0EFF8052000F050FF01F018F920B9012001F0E6F8302008BD01F0FAF820B9012084
:4002800001F0DEF8382008BD01F002F920B9012001F0D6F8352008BD01F0F2F820B9012001F0CEF8322008BD012001F0C9F8002001F0D2F8052000F027FF01F0EFF820B95E
:4002C000012001F0C9F82A2008BD01F0D1F820B9012001F0C1F8372008BD01F0D9F820B9012001F0B9F8342008BD01F0C9F820B9012001F0B1F8312008BD012001F0ACF819
:400300007A2008BD10B50446012001F015F80021084601F06BF8204601F00AF8322000F0F3FE10BD70B50546012001F005F8284603F0A8FC06460021084601F057F8002471
:4003400005E0B44205D0285D00F0F2FF0134072CF7DD0021012001F049F8082405E0B44205DA285D00F0E4FF01340F2CF7DD40F2DC5000F0C9FE012000F0DEFF70BD00BF46
:40038000F0B585B00646012000F0D6FF304603F079FC0546314B02AF93E8030087E803008DE803000021084601F020F8384600F0B1FF0021012001F019F8684600F0AAFF52
:4003C000FA2000F0A1FE00243BE05A1C04A9114411F8081C04A8034403F8081C134600E00023062BF1DD9DF800308DF80F30002309E05A1C04A9114411F8101C04A80344CE
:4004000003F8101C1346062BF3DDAC4203DA335D8DF8073002E020238DF807300021084600F0E4FF02A800F075FF0021012000F0DDFF684600F06EFF4FF4FA7000F064FEDB
:4004400001346B1C9C42CBDB40F2DC5000F05CFE012000F071FF05B0F0BD00BFA83C000010B5044603F00EFC102803DD2046FFF787FF10BD2046FFF755FF10BD08B500F011
:40048000DDFDC043C0B200F0CDFD00F0EBFDC043C0B200F0DBFD00F0F9FDC043C0B200F0E9FD00F007FEC043C0B200F0F7FD08BD70B50546002426460AE000F0CBFA38B152
:4004C000304600F0CDFA0136632E00DD002632344FF47A7303FB05F39C42EEDB70BD00BF08B5FA20FFF7E4FF08BD00BF08B540F2EE20FFF7DDFF08BD08B5FFF7BFFFFFF7B6
:40050000EFFFFFF7BBFF08BD08B5FFF7B7FFFFF7EDFFFFF7B3FF08BD2DE9F04184B005460F46012000F008FF284603F0ABFB0646414B0DF1080893E8030088E803008DE81A
:4005400003000021084600F051FF404600F0E2FE0021012000F04AFF684600F0DBFEFA2000F0D2FD002457E05A1C04A9114411F8081C04A8034403F8081C134600E000233A
:40058000062BF1DD9DF800308DF80F30002309E05A1C04A9114411F8101C04A8034403F8101C1346062BF3DD2B5D8DF807300021084600F01BFF02A800F0ACFE0021012043
:4005C00000F014FF684600F0A5FE285D01F014FC9DF807302E2B06D117B1FFF78DFF17E0FFF77EFF14E02D2B06D117B1FFF78CFF0EE0FFF77BFF0BE0202B04D140F2EE206C
:4006000000F082FD04E02F2B02D1FA2000F07CFDFA2000F079FD0134B442B0DB4FF4FA7000F072FD012000F087FE0A2001F0E4FB04B0BDE8F08100BFB43C0000F8B500AF10
:40064000044600F0CBF90546204603F01BFBC0EBC000073020F00700ADEB000D204600F093F90146684603F005FB2046FFF7F8FE29466846FFF750FF15B9684600F080FA00
:40068000BD46F8BD233816280DD8DFE800F0200C0C0C0C0C0C0C0C0C0C0C0C1E220E10121416181A1C000C4870470C4870470C4870470C4870470C4870470C4870470C481F
:4006C00070470C4870470C4870470C4870470C4870470C48704700BFA83D0000C43C0000CC3C0000D83C0000E43C0000F43C0000103D0000203D0000283D0000483D000068
:40070000683D0000C03C000020385A285CD8DFE810F0C900AD00C3005B00C5005B00B500AB00B100B3005B00BD00A700BF00A500AF00910093009500970099009B009D00D8
:400740009F00A100A300B700B9005B00BB005B00A900C7005D005F00610063006500670069006B006D006F00710073007500770079007B007D007F00810083008500870079
:4007800089008B008D008F005B005B005B005B00C1005B005D005F00610063006500670069006B006D006F00710073007500770079007B007D007F008100830085008700B5
:4007C00089008B008D008F003748704737487047374870473748704737487047374870473748704737487047374870473748704737487047374870473748704737487047D5
:400800003748704737487047374870473748704737487047374870473748704737487047374870473748704737487047374870473748704737487047374870473748704758
:400840003748704737487047374870473748704737487047374870473748704737487047374870473748704737487047374870473748704737487047374870473748704718
:4008800037487047374870473748704737487047374870473748704737487047374870473748704737487047A83D0000883E00007C3D0000843D00008C3D0000443E0000AC
:4008C000903D0000983D00009C3D00005C3E0000A43D0000AC3D0000B03D0000543E0000703E0000B83D0000BC3D0000C43D0000CC3D0000D03D0000FC3D0000D03E0000A0
:40090000D43D0000DC3D0000E03D0000E83D0000F03D0000F83D0000003E0000083E0000103E0000183E0000203E0000283E0000303E0000383E0000403E0000483E000015
:40094000503E0000583E0000603E0000683E0000743E00007C3E0000843E00008C3E0000943E00009C3E0000A43E0000AC3E0000B43E0000BC3E0000C43E0000CC3E0000A7
:40098000D43E0000783D00002DE9F04100AF804603F078F90646C0EBC000073020F00700ADEB000D6D4600248DF800400EE018F80400FFF7A9FE0146284603F04CF9284610
:4009C00003F060F9044B1B882B520134B442EEDB2846BD46BDE8F081DC3E000010B5012001F0D8F800F048FF002000F04DFF20B100F062FF00F096FF0446B4F5885F01DD0E
:400A0000012010BD002010BD10B5002414E0204602F0BAFD0AA3D3E9002302F01BFE0AA3D3E9002302F016FE01F022FB084B03EBC403C3E900010134632CE8DD10BD00BFEE
:400A4000CDCCCCCCCCCC0C40399D52A246DF913FB881FF1F08B501F0C7F800F0800008BD08B50A4B03EBC0000022094B03C802F0F1FD0022064B02F03BFC03F085F8FF2895
:400A800000DDFF20C0B201F01FF908BDB881FF1F0000604010B50446002001F07BF800F0EBFE002000F0F0FE90B100F005FF002800DA1F30401100F2CD10012C03D180B2C0
:400AC00001F0C8F910BD022C02D180B201F036FA10BD00BF08B54FF4FA7001F0BBF940F6C41001F02BFA08BD08B540F2DC5001F0B1F940F2DC5001F021FA08BD08B540F6CB
:400B0000C41001F0A7F94FF4FA7001F017FA08BD10B54FF4FA6001F09DF94FF47A7001F00DFA4FF4FA7000F0EFFA002418E04FF47A7001F08FF94FF4FA6001F0FFF94FF4BD
:400B4000FA7000F0E1FA4FF4FA6001F083F94FF47A7001F0F3F94FF4FA7000F0D5FA0134022CE4DD4FF47A7001F074F94FF4FA6001F0E4F94FF47A7000F0C6FA10BD00BF3D
:400B8000F8B5064603F07EF80746FFF7C1FF002465232AE03519325D934209D1202B07D02F2B05D0FFF7AAFF4FF4FA7000F0ACFA2B782E2B06D1FFF78DFF4FF4FA7000F069
:400BC000A3FA10E02D2B06D1FFF78EFF4FF4FA7000F09AFA07E0202B05D1FFF78FFF40F2DC5000F091FA2B780134BC42D2DBFFF785FF40F2DC5000F087FAF8BDFEE700BFFB
:400C0000F0B40022174611E050F82760F3B226F0FF0608E001EB420511F812406D78A5550132013BDBB2002BF4D101371E2FEBD9F0BC70470A4B1B78DBB203F00701094A61
:400C400011701B09013213702022074B1A70022203F683031A704422A3F20A231A707047CF0100496E580040FD51004008B50A46002102F0E8FF08BD08B502F0D9FF08BDA0
:400C800038B50024344B1C80502202331A70172202331A80182331490B7002310A80304A13704FF49C71023211800232137004222C492D48FFF7E0FF02222C4B1A700822E5
:400CC0004FF040231A70032103F500731970284B1B78DBB227490B70274B1A8041F25122023B1A8019250CE0244B1B7803F0010343EA440404F003044FF4F07001F0A8F9E1
:400D0000013D0DB1032CEFD115B90320FFF776FF1B4B4FF480721A8007221A70002219490A704820023108701A700222033B1A7004220A331A70144A137843F00F0313705F
:400D4000013A137843F001031370013A137843F08003137038BD00BF80400040864000408A4000405C050048004100400043004008010049A14600402242004025420040BF
:400D80000440004006400040A2430040012814D810B44000C0B2094B53F820101A18147C0A7822430A700130C0B253F820201844017C13780B43137010BC7047E03E000083
:400DC000012816D810B44000C0B20A4B53F820101A18147C0A7822EA04020A700130C0B253F820201844017C137823EA0103137010BC7047E03E0000012808D8044B03EBB9
:400E0000800252691844017F13780B4313707047E03E0000012809D8054B03EB800252691844017F137823EA01031370704700BFE03E000038B572B6334A137843F00403FD
:400E4000137000240BE0314863001A19510001440A46898C106AFFF709FF0134E4B2062CF1D92B494FF09040FFF7CAFE0A24294B1C70294A137843F00203137010321378A2
:400E800043F002031370254D2B7843F040032B70A2F58632513A137843F01003137008221F492048FFF7E8FE08221F491F48FFF7E3FE22461E491F48FFF7DEFE22461E49A6
:400EC0001E48FFF7D9FE08221D491E48FFF7D4FE22461D491D48FFF7CFFE1D4A137843F0080313701B4C61232370FFF7C9FE812323700122184B1A70FFF79CFE0E222946A7
:400F00001648FFF7B9FE38BDE8460040E03E00007C0000488358004003500140A0430040200500480251004028050048C251004030050048F05100403C050048105100409F
:400F400048050048225100405005004830510040224300400048004004000840B043004008B502F039FE03680C2B00D1FEE7FEE708B5104E104D16E029686B68AC680022F4
:400F800004E051F8040B43F8040B0432A242F8D1E868002203E0002143F8041B04328242F9D11035013E002EE6D102F01BFEFFF79FF8FEE7010000003041000008B5104AC5
:400FC000104B1A60104A136843F40073136000230AE0032B03D80D4A52F8231000E00C490C4A42F8231001332F2BF2D90A4B1A780A4B1A70074A0A4B1A60FFF71BFF08BD34
:401000000004FA050CED00E014ED00E000000000610F00000080FF1FBC760040C080FF1F08ED00E0044A137803F0FE0300F0010018431070704700BF00510040024B1878C3
:4010400000F00100704700BF01510040044A137803F0FD03400000F0020018431070704700510040024B1878C0F34000704700BF01510040044A137803F0DF03400100F09F
:40108000200018431070704700510040024B1878C0F34010704700BF01510040044A137803F0BF03800100F0400018431070704700510040024B1878C0F38010704700BF0D
:4010C00001510040024B1878C0F34010704700BFC1510040024B1878C0F30010704700BFC1510040024B1878C0F3C000704700BFC1510040024B1878C0F38000704700BFB0
:40110000C151004001BE704710B5044605E0084B186800F09DFFA4F50044B4F5004FF6D8034B586800FB04F000F092FF10BD00BFCC80FF1F08B5034B1B7A00FB03F000F0FF
:4011400087FF08BDCC80FF1F70B504460E46074B1D681F2802D90020FFF7D4FF04F01F04103455F8240045F8246070BD08ED00E038B504460D46072902D90020FFF7C2FF1A
:401180001F2C02D90020FFF7BDFF04F01F0000F1604000F564406D01EDB2057038BD00BF10B50B4C237803F09F032370237803F0F00323702378184340F0100020700120EA
:4011C000FFF7B8FF237803F0EF03237010BD00BF2051004038B505460E4C237843F020032370237803F0BF0323700020FFF7A2FF237803F0F003237023781D4345F01005E9
:4012000025700120FFF796FF237803F0EF03237038BD00BF2051004070B5354B1A7802F08002D2B21A7033490A7802F0F00242F00F020A7001310A7802F0F0020A70013159
:401240000A7802F0F0020A701A7802F0DF021A701A7842F040021A704FF4CA760020FFF769FF234D2B7843F010032B700120FFF761FF214B1C78E4B22B7803F0EF032B70EA
:401280000020FFF757FF04F00804E4B22B7843F010032B700120FFF74DFF2B7803F0EF032B7014B90A20FFF745FF013E0CB1002ED4D10F4A137803F0BF031370137803F088
:4012C0008003DBB213700232137803F0F00313700132137803F0F00343F00F0313700132137803F0F00343F00F03137070BD00BF20510040225100402151004010B504464A
:40130000FFF78AFF2009FFF765FF04F00F00FFF761FF10BD38B505460078012404E0FFF7EDFF285D0134E4B20028F8D138BD00BF08B5FFF7E3FF08BD10B50446FFF76CFF2B
:401340002009FFF72DFF04F00F00FFF729FF10BD08B52820FFF7D8FE0320FFF721FF0520FFF7D2FE0320FFF71BFF0F20FFF7CCFE0320FFF715FF0120FFF7C6FE0220FFF7FD
:401380000FFF0520FFF7C0FE0620FFF7D5FF0E20FFF7D2FF2C20FFF7CFFF0820FFF7CCFF0120FFF7C9FF0C20FFF7C6FF0320FFF7C3FF0520FFF7A8FE08BD00BF08B50C2099
:4013C000FFF7BAFF0122014B1A7008BD6481FF1F08B5054B5B7823B9FFF7BAFF0122024B5A70FFF7EBFF08BD6481FF1F08B5032819D8DFE800F002070D1381F08000FFF790
:401400009BFF08BDA1F14000C0B2FFF795FF08BDA1F16C00C0B2FFF78FFF08BDA1F12C00C0B2FFF789FF08BD044A137803F0FD03400000F00200184310707047305100403D
:40144000044A137803F0F703C00000F0080018431070704730510040044A137803F0EF03000100F0100018431070704730510040024B1878C0F38010704700BF3151004031
:40148000024B187800F00100704700BFF1510040014B1878C009704731510040024B1878C0F34010704700BF3151004010B59DF80840012C51D1013809282ED8DFE800F018
:4014C000052D2D052D2D0F192D230F2B03D92548007840B222E02448007840B21EE00F2B03D92248007840B218E02148007840B214E00F2B03D91F48007840B20EE01E480F
:40150000007840B20AE00F2B03D91C48007840B204E01B48007840B200E0002001EB401101FB02F1C90B8AB20D2B0BD8C3F10E0289B211418AB2611E124800EB8101013364
:401540008B7005E0631E0F4901EB83030F219970013C0C4B23F8242010BD0020FFF7D2FD10BD00BF180100491C010049190100491D0100491A0100491E0100491B01004913
:401580001F0100496881FF1FF8B5074600F068FD06460D4D2B7843F003032B700B4C237843F0030323700A4B1F700320FFF7C2FD2B7803F0FC032B70237803F0FC03237085
:4015C000304600F051FDF8BDF8460040F9460040925800400022324B1A7101285FD170B53022304B1A70042202331A70062201331A70002401331C7001331C703F22013358
:401600001A7002331C7001331C7001331C7001250A331D70502203F527631A700A2201331A702C2201331A7001331C70442203331A70482201331A7001331D70022602334F
:401640001E70122201331A70282201331A70EB2201331A705220FFF797FF5822124B1A7001331C70052205331A7001331E7001331C7001331C70204600F078F943F233326C
:401680000A4B1A602946284600F094F92946082000F014FA06491D20FFF756FD70BD70476881FF1F004E004094580040D884FF1F49190000F0B583B0284D01272F70284E8C
:4016C00000247471102000F063F9102000F0E4F907211D20FFF74CFD0422224B1A7001331C7007331C70204A137843F0180313701E4B1C7003F2F5231C7001331C700A22E1
:40170000A3F209331A7001331C7002331C705B2205331A705E2201331A7004331C701422A3F68C231A70009710234FF4004248F6F0510220FFF7BAFE2B78013B06EB830391
:401740009A780B4B1A702B78013B36F82320094B1A802878FFF73EFF03B0F0BDDC80FF1F6881FF1F96580040075B0040935800400E4E00400C4E004070B500F071FC064686
:401780002A4B1B782A4B1A7842F001021A701A7842F010021A7010331A7842F001021A701A7842F010021A70224D2B7843F002032B70214C237843F0020323701F4A13785B
:4017C00043F0030313700320FFF7B4FC2B7803F0FD032B70237803F0FD032370184A137843F0060313707A22164B1A70164A137843F0010313701032137843F001031370B3
:401800000F3A137843F0010313701032137843F0010313704FF000530C4A1360A2F5C0721360304600F020FC70BD00BFDC80FF1FAA430040F8460040F946004091580040C1
:401840007758004082580040A143004080E200E008B5084B9B794BB9064BDB7913F0FF0F01D1FFF727FF0122024B9A71FFF784FF08BD00BF6881FF1F024A137843F0010380
:4018800013707047004E0040094B1B7913F0FF0F03D0074B5B79DBB203E0064B1B7803F00103012B01D00028EED01846704700BF6881FF1F014E0040154B1B7803F00303EA
:4018C000012B07D8134B1888023B1B889BB243EA004013E0022B0AD10E4B1888023B1B7843EA00430C4A107843EA002006E00B4B188883B2074A108843EA0040084B1B7998
:4019000013F0FF0F02D00022054B5A71704700BF144E0040124E0040114E0040104E00406881FF1F064B9B68C01A4FF47A7303FB00F0044B1B6890FBF3F000B2704700BFD7
:401940006881FF1FD884FF1F704700BF10B5002404E02046FFF75EFA0134E4B2012CF8D9FF22014B1A7010BDDD80FF1F10B50446FFF7ECFF2046FFF73FFA014B1C7010BDBD
:40198000DD80FF1F014B188880B2704780400040034B1A7800F0F80010431870704700BF82400040024B187800F00700704700BF8240004070B505460E46FFF7F3FF04467A
:4019C000FFF7E0FFA84256D02B4B1B7803F0010294B900B185B938B9284B1D80284A137803F0BF03137070BD254A137843F040031370224B1D8070BD22B3002321490B705D
:401A000001240F310C7004310B700C390B7803F07F030B701A4B1B7813F0080F00D08DB9194B18800721013B1970164B1B7813F0010FFAD110490B7803F0FE030B7000210E
:401A4000104B19700C4B1B7813F0010F0DD00E4B1D800EB1032200E001220A4B1A70094B1B7813F0010FFAD170BD044B1D8002490B7813430B7070BDA2430040804000401D
:401A8000824000400140004002400040014B188880B2704700410040034B1A7800F0F80010431870704700BF02410040024B187800F00700704700BF0241004070B50546F2
:401AC0000E46FFF7F3FF0446FFF7E0FFA84256D02B4B1B7803F0010294B900B185B938B9284B1D80284A137803F0BF03137070BD254A137843F040031370224B1D8070BDB3
:401B000022B3002321490B70012413310C7004390B7008390B7803F07F030B701A4B1B7813F0080F00D08DB9194B18800721013B1970164B1B7813F0010FFAD110490B78B8
:401B400003F0FE030B700021104B19700C4B1B7813F0010F0DD00E4B1D800EB1032200E001220A4B1A70094B1B7813F0010FFAD170BD044B1D8002490B7813430B7070BDB1
:401B8000A14300400041004002410040014000400240004010B50446054B1878FF2801D0FFF70EF92046FFF7F1F8014B1C7010BDDE80FF1F084A137843F0010313701032D7
:401BC000137843F00103137002F64D32137843F001031370704700BFA3430040014B1870704700BF034F0040014B1878704700BF034F0040014B1880704700BF044F00409B
:401C0000014B1880704700BF064F004008B5164A137803F0010313700232137803F0FC031370124B1A7802F0CF021A701A7842F030021A701A7802F0F0021A701A7842F0DF
:401C40000F021A700A4A137843F00103137040F2AF40FFF7CFFF40F2AF40FFF7D1FF0020FFF7BCFF08BD00BF004F00400B4F0040014F004008B5054B1B7823B9FFF7C6FF1F
:401C80000122024B1A70FFF795FF08BD7481FF1F054A137843F0010313701032137843F001031370704700BFA8430040054B1A7802F0FD021A701A7800F002001043187050
:401CC000704700BF20580040014B1870704700BF805B0040064B1B78C3F3810303F19243063393F82031DBB2024A1370704700BF205800400846004008B5064B1A7802F0AB
:401D0000F3021A701A7800F00C0010431870FFF7E1FF08BD2058004010B50024054B1C7001331C702046FFF7E7FF2046FFF7BEFF10BD00BF2058004008B5074B1B7823B9C6
:401D4000FFF7EAFF0122044B1A70FFF7A1FF6420FFF7BAFF08BD00BF7581FF1F7222094B1A70202203F580731A700622A3F261131A70472210331A70002203F5A8731A704E
:401D8000704700BF8964004010B500F069F904460A4A137843F02003137002F58072137843F010031370013A137843F01003137000F02EF8204600F057F910BD99640040D5
:401DC00008B5054B1B7823B9FFF7C8FF0122024B1A70FFF7D9FF08BD7681FF1F014B1878704700BF49650040024B187800F07F00704700BF69650040034B1B7813F0040F01
:401E0000FAD1024B187070476865004048650040054A137843F0080313701032137843F008031370704700BFA2430040024A137843F080031370704775650040014B1880C8
:401E4000704700BF086A0040014B1880704700BF886A0040014B1880704700BF486A0040014B1870704700BF85650040014B1878704700BF65650040014B188880B27047BD
:401E8000A86A004008B501E0FFF7F6FFFFF7EEFF10F0100FF8D108BD10B5154A137803F0C00343F0090313701F32137843F001031370104C237843F00103237044F620607F
:401EC000FFF7BCFF44F62060FFF7BEFF4FF47A70FFF7C0FF0020FFF7C3FF00F0C1F8237843F01003237000F0BFF8FFF7CBFF10BD756500409565004008B5054B1B7823B9E9
:401F0000FFF7CAFF0122024B1A70FFF78FFF08BD7881FF1F024A137843F080031370704777650040014B1880704700BF0C6A0040014B1880704700BF8C6A0040014B188021
:401F4000704700BF4C6A0040014B1870704700BF87650040014B1878704700BF67650040014B188880B27047AC6A004008B501E0FFF7F6FFFFF7EEFF10F0100FF8D108BDDD
:401F800010B5154A137803F0C00343F0090313701F32137843F001031370104C237843F00103237044F62060FFF7BCFF44F62060FFF7BEFF4FF47A70FFF7C0FF0020FFF7D3
:401FC000C3FF00F04DF8237843F01003237000F04BF8FFF7CBFF10BD776500409765004008B5054B1B7823B9FFF7CAFF0122024B1A70FFF78FFF08BD7981FF1F014B1B68F9
:402000001864704708ED00E04001C0B2014B1870704700BF00E400E00122014B1A60704700E100E00122014B1A60704780E100E010B50446FFF7F6FF2046FFF7DFFF07203A
:40204000FFF7E2FFFFF7E8FF10BD00BF000000000230800803D000BF01380046FCD17047EFF3108072B6704780F31088704700BF30B5214A21F00043934287B01BDD1F4AEE
:40208000934205DD02460B4601F030F907B030BD02AA00F035F800F0030001281ED0022811D0DDE9042300B3DDE9020100F040FA01F10041EAE7002300930022002300F0B2
:4020C00053FF07B030BD01230093DDE90201DDE9042300F049FF01F10041D7E7DDE90423DDE9020100F024FAD0E70124DDE90201009400F039FFC9E7FB21E93FFFFFEF7FCF
:402100002DE9F04F944C21F00047A7428FB040F381801446914A0E46974226DC84A3D3E90023002940F3A08101F0E0F88C4B80469F42894600F083807FA3D3E9002301F0D4
:40214000D5F802460B464046C4E90023494601F0CDF879A3D3E9002301F0C8F80125C4E9020128460FB0BDE8F08F7E4A974240F383807D4A974258DC3D15A5F21645A7EB0A
:4021800005518B46824601F0FFFC01F0FDF98046894642464B4650465946CDE9088901F0A5F80022714B01F055FA8B46824601F0EBFC01F0E9F98046894642464B465046FF
:4021C0005946CDE90A8901F091F80022674B01F041FA00220023CDE90C0101F0A3FC002800F06A81002340464946002201F09AFC002814BF012302235D48022101900091D3
:402200002A46214608A800F0B7FA002EC0F24A81054606E0C2E9000100250024C2E90245002528460FB0BDE8F08F02460B4601F05DF80025C4E90201C4E90001F1E740A320
:40224000D3E9002301F052F83FA3D3E9002306460F4601F04BF802460B463046C4E90023394601F043F838A3D3E9002301F03EF80125C4E90201D4E700F02CFF34A3D3E904
:4022800000238046894601F0E5F90022394B01F02FF801F079FC054601F076F924A3D3E90023CDE9040101F0D5F902460B464046494601F01BF820A3D3E9002382468B46BB
:4022C000DDE9040101F0C6F91F2DCDE9020155DC294B6A1E53F822309F424FD002460B465046594601F002F802460B4681468846C4E900234A4643465046594600F0F6FFAA
:40230000DDE9022300F0F2FF02460B46002EC4E9022386DA4A4608F1004301F1004184E80C00E160A0606D427BE700BFAFF3008000004054FB21F93F3163621A61B4D03D14
:402340000000601A61B4D03D7370032E8A19A33B83C8C96D305FE43FFB21E93F7BD90240FB21F93FFB213941FFFFEF7F00007041AC3F00000000E03F2C3F0000DDE90223B8
:402380005046594600F0B2FF3F15C1F30A53FB1A102B81468846C4E90001ABDD58A3D3E90023DDE9040101F055F98046894602460B465046594600F099FFCDE906010246F3
:4023C0000B465046594600F091FF42464B4600F08DFF4DA3D3E9002380468946DDE9040101F038F942464B4600F080FF02460B46CDE90201DDE9060100F078FF0B4602464A
:402400008846C1F30A517F1A312F8146C4E9002372DD3FA3D3E90023DDE9040101F01AF98046894602460B46DDE9060100F05EFF02460B4682468B46DDE9060100F056FFC4
:4024400042464B4600F052FF33A3D3E9002380468946DDE9040101F0FDF842464B4600F045FFCDE9020139E700F042FF2E4B80469F42894622D02AA3D3E9002300F038FFFC
:4024800002460B464046C4E90023494600F02EFF23A3D3E9002300F02BFF4FF0FF35C4E90201BEE66268E36802F1004203F1004345426260E360B4E603239DE610A3D3E93C
:4024C000002300F015FF10A3D3E9002306460F4600F00EFF02460B463046C4E90023394600F004FF08A3D3E9002300F001FF4FF0FF35C4E9020194E6DDE906ABFAE600BF07
:402500000000601A61B4D03D7370032E8A19A33B0000002E8A19A33BC14920259A837B393163621A61B4D03DFB21F93F000000002DE9F04F21F00046B6F1795F85B00C4663
:4025400092469B4605466BDA01F01EFB002800F0E7802A4623462846214601F07BF874A3D3E900238046894601F074F872A3D3E9002300F0BDFE42464B4601F06BF870A370
:40258000D3E9002300F0B2FE42464B4601F062F86DA3D3E9002300F0ABFE42464B4601F059F86BA3D3E9002300F0A0FE42464B4601F050F868A3D3E9002300F099FE42468F
:4025C0004B4601F047F8CDE900010022644B4046494601F03FF8DDE9002306460F464046494601F037F85246804689465B462846214601F02FF802460B464046494600F03D
:4026000075FE02460B463046394600F06FFE02460B460020534900F069FE05B0BDE8F08F02460B4601F016F841A3D3E900238046894601F00FF840A3D3E9002300F058FEC7
:4026400042464B4601F006F83DA3D3E9002300F04DFE42464B4600F0FDFF3BA3D3E9002300F046FE42464B4600F0F4FF38A3D3E9002300F03BFE42464B4600F0EBFF36A3B7
:40268000D3E9002300F034FE4B46424600F0E2FF354BCDE900019E4297DD344B00229E4238DCA6F5001300202E4916461F4600F01DFECDE902010022294B4046494600F0AA
:4026C000C9FF32463B4600F011FEDDE9002306460F464046494600F0BDFF5246804689465B462846214600F0B5FF02460B464046494600F0FBFD02460B463046394600F074
:40270000F5FD02460B46DDE9020100F0EFFD05B0BDE8F08F164B0026CDE90223154FCAE71049002005B0BDE8F08F00BFAFF30080D43888BEE9FAA8BDC4B1B4BD9EEE213E7B
:40274000AD529C804F7E923E9015CB19A001FA3E7751C1166CC1563F4C5555555555A53F0000E03F0000F03F3233D33F0000E93F0000E73F0000D23F2DE9F04F794CADF525
:402780001D7D1F460B93D31E84FB0354DB17C3EBA403A69E744C23EAE37554F826406B1C26460994A3EB83037C1E0D95029402EBC3032D1B341904900A91089316D42C4471
:4027C000013422AEA79F08E057F8250000F0DCFE0135A542E6E9020108D0002DF4DA013500200021A542E6E90201F6D1099B002B2FDB099B74AADDF8089002EBC30B0DF5EA
:40280000E47A029B002BC0F295810B9B0026C3EB090824AB03EBC808049B0027A3F1080524AB03EBC904F5E9022374E8020100F011FF02460B463046394600F059FD4445E2
:4028400006460F46EFD1EAE90267DA4509F10109D7D1099B10A91D4603F18043023B9B001A1D0A440B440F920E939CAB03EBC503002D53E928672BDD9CAB03EBC504A83CAC
:402880000DF13C0A0DF5E47B0022384B3046394600F0E0FE01F078F900F076FE0022344B8046894600F0D6FE02460B463046394600F01CFD01F068F974E802234AF8040F8C
:4028C0004946404600F014FD5C4506460F46DBD1089C30463946224600F08AFC00224FF07F5306460F4600F0B5FE00F0F9FB0022204B00F0AFFE02460B463046394600F05A
:40290000F5FC0F46064601F03FF9814600F03CFE02460B463046394600F0E8FC002C06460F4640F3EE80681E10AB53F82030C4F1180243FA02F101FA02F29B1AC4F11708C8
:4029400010AA42F82030894443FA08F8B8F1000F3DDD002D09F1010940F3D382002214460FA911E0ABAAAA2AB44000000000703E0000704100002040C3F180700BB10860B5
:402980000124013295420DDD51F8043F002CF3D0C3F1FF13013203F57F4395420B604FF00104F1DC089B002B0DDD012B00F0B180022B08D16A1E10AB53F8223010A9C3F323
:4029C000150341F82230B8F1020F00F08180002200233046394601F0A5F8002800F05B82099B05F1FF3B5B4510DC05F1804310AA013B0F9802EB8303002253F80419834254
:402A000042EA0102F9D1002A40F0B180099B10AA013B52F82330002B40F071820E9A012352F8041901330029FAD0E9186A1C8A420C914BDC0D990B985118DB0001F18041DC
:402A40000593A79B05440139E80003EB810A24ABD20003EB000B74AB13440193A2F10803069007934FF000095AF8040F00F08CFD029BEBE80201002B4FF000064FF00007D7
:402A80001BDB069B03EB0904079B09EB030824AB1C449844049BA3F10805F5E9022374E8020100F0D7FD02460B463046394600F01FFC444506460F46EFD1019B09F1080948
:402AC000E3E802670193059B9945CDD10C9DCCE632463B460020B04900F008FC06460F46002C3FF474AF089A0020AB4900F080FB02460B463046394600F0F8FB06460F463B
:402B000065E710D16B1E10AA52F823304FEAE3581CE76A1E10AB53F8223010A9C3F3160341F822304FE700229C4B01F019F858B980464CE700260027EAE90267DA4509F131
:402B400001097FF45EAE84E6002D09F10109C8BF4FF002083FF702AF32463B4600208E4900F0C4FB4FF0020806460F462FE7089A10AB53F82B30183ACDF81490CDF80480D4
:402B800008926BB90BF18043013B10A901EB830353F804190BF1FF3B183A0029F8D00892089A00207C4900F023FBBBF1000F04460D46C0F2B6814FEACB030DF5E87810AABD
:402BC00002EB8B0608EB03090493043609F1080756F8040D00F0D8FC22462B4600F03AFD002267E902016E4B2046294600F032FDB84504460D46EBD14B46CDF818B09B46E4
:402C00000DF5987ACDF808A0DDF824A04FF00009BAF1000FC0F226815DA3D3E90023DFF884815D4600260027002403E0A14510DBF8E90223F5E8020100F00CFD02460B4624
:402C40003046394600F054FB0134A24506460F46ECDA029BABF1080B03EBC903C3E9006772AB5B4509F10109D2D1A69BDDF818B0DDF808A0032B00F28380DFE813F0D10007
:402C8000950095000400BBF1000F40F35481049BCDF808B053449846D3E90067D34658E9029A32463B464846514600F021FB04460D4602460B464846514600F017FB32467A
:402CC0003B4600F015FBC8E9000168E90245C34526462F46E3D1DA46DDF808B0BBF1010F40F32981049B0DF59C7B53449846D3E90067994659E902343046CDE902341A46BD
:402D00003946234600F0F4FA04460D4602460B46DDE9020100F0EAFA32463B4600F0E8FAC9E9000169E90245CB4526462F46E1D100231D4608F1080850AC184678E90223D1
:402D4000294600F0D5FA444503460D46F5D1019A002A00F0D880DAF80440DAF80C200A9FDAF80010DAF8080005F1004504F1004402F100427D613B617C60FA603960B860AA
:402D8000059B03F007000DF51D7DBDE8F08F00BF00000040FB21F93F0000F03F0000E03F0000703EC840000000242146049D0835554475E90223204600F09AFA554504460F
:402DC000F7D1019B002B50D00A9F01F100450B46DAE9000187E83000224600F087FABBF1000F03460D460DDD01241846FAE90223294600F07DFA0134A34503460D46F4DA8E
:402E0000019A0AB105F10045184629460A9BC3E90201059B03F007000DF51D7DBDE8F08F00231C46049A0832924418467AE90223214600F05DFA0BF1FF3BBBF1FF3F034656
:402E40000C46F2D1019A0AB104F10044184621460A9BC3E90001059B03F007000DF51D7DBDE8F08F00260027F3E626460F4622460A9C0B46DAE90001C4E9006700F036FAFF
:402E8000BBF1000F03460D46AEDC184629460A9BC3E90201BDE7089B30465A423946CDF81490CDF8048000F0A3F900222C4B06460F4600F055FE002840D00022294B304639
:402EC000394600F0C7FB00F05FFE044600F05CFB0022234B00F0BEFB0B4602463946304600F004FA00F050FE089B05F1010B1833089310AB43F8250043F82B4050E601232A
:402F000093E500244EE51846DAE90067DAE9022329460A9DC5E90067C5E90401C5E902232EE7A69B032B3FF62BAFDFE803F0151010020DF5987A00231D4608E7304639469F
:402F400000F022FE10ABAB4643F8250028E6002421460DF5987A34E700231C4672E700BF000070410000703E2DE9F04F21F00046B6F1795F85B00C4690469946054604DAE1
:402F800000F002FE002800F085802A4623462846214600F05FFB06460F4602460B462846214600F057FB3EA3D3E9002382468B463046394600F04EFB3BA3D3E9002300F087
:402FC00095F932463B4600F045FB39A3D3E9002300F08EF932463B4600F03CFB36A3D3E9002300F083F932463B4600F033FB34A3D3E9002300F07CF90E9BCDE900019BB3C4
:403000000022334B4046494600F024FBDDE90023CDE902015046594600F01CFB02460B46DDE9020100F062F932463B4600F012FB42464B4600F05AF923A3D3E900230646FE
:403040000F465046594600F005FB02460B463046394600F04DF902460B462846214600F045F905B0BDE8F08F02460B463046394600F0F0FA14A3D3E9002300F037F95246E7
:403080005B4600F0E7FA2A46234600F031F905B0BDE8F08F2846214605B0BDE8F08F00BF7CD5CF5A3AD9E53DEB9C2B8AE6E55A3E7DFEB157E31DC73ED561C119A0012A3F75
:4030C000A6F810111111813F495555555555C53F0000E03F21F00041704700BF00000000C1F30A522DE9F843A2F2FF36132E0B4604460D46884607461CDC002E3FDB3A4A1A
:40310000864642FA06F901EA0902024317D034A3D3E9002300F0ECF80022002300F02AFD20B1002D40DB28EA0905002738462946BDE8F883332E06DDB6F5806F2FD02046D0
:403140001946BDE8F883A2F213424FF0FF3929FA02F910EA090FF2D021A3D3E9002300F0C7F80022002300F005FD0028DED0002D20DB454627EA090738462946D8E718A3E4
:40318000D3E9002300F0B4F80022002300F0F2FC0028CBD0002D18DB00273D46C6E702460B4600F0A5F8CCE74FF4801343FA06F6B044B8E7142E10D00123C6F1340603FA88
:4031C00006F6371928BF9844D3E725F00042074B224318BF1D460027A8E705F10108C8E79C7500883CE4377EFFFF0F000000F0BFF8B5C1F30A5604460D460B46174606BB63
:4032000021F00043034325D000222F4B00F022FA2E4A044697420D460B462ADBC1F30A56363E40F2FE723E44964228DC002E12DD23F0FF4323F4E00343EA065520462946C2
:40324000F8BD40F2FF729642EBD102460B4600F04FF8F8BDF8BD16F1350F1DDA4CF250339F420CDC14A1D1E9000122462B4600F031F811A3D3E9002300F0ECF9F8BD224675
:403280000FA1D1E900012B4600F024F80CA3D3E9002300F0DFF9F8BD23F0FF4323F4E003363643EA0655204629460022084B00F0D1F9F8BDAFF3008059F3F8C21F6EA501C4
:4032C0009C7500883CE4377E00005043B03CFFFF0000903C03F0004321F0004242EA0301704700BF81F0004102E000BF83F0004330B54FEA41044FEA430594EA050F08BFA2
:4033000090EA020F1FBF54EA000C55EA020C7FEA645C7FEA655C00F0E2804FEA5454D4EB5555B8BF6D420CDD2C4480EA020281EA030382EA000083EA010180EA020281EA8C
:403340000303362D88BF30BD11F0004F4FEA01314FF4801C4CEA113102D0404261EB410113F0004F4FEA03334CEA133302D0524263EB430394EA050F00F0A780A4F1010442
:40338000D5F1200E0DDB02FA0EFC22FA05F2801841F1000103FA0EF2801843FA05F359410EE0A5F120050EF1200E012A03FA0EFC28BF4CF0020C43FA05F3C01851EBE37113
:4033C00001F0004507D54FF0000EDCF1000C7EEB00006EEB0101B1F5801F1BD3B1F5001F0CD349085FEA30004FEA3C0C04F101044FEA445212F5800F80F09A80BCF1004FCA
:4034000008BF5FEA500C50F1000041EB045141EA050130BD5FEA4C0C404141EB010111F4801FA4F10104E9D191F0000F04BF01460020B1FA81F308BF2033A3F10B03B3F1BF
:4034400020020CDA0C3208DD02F1140CC2F10C0201FA0CF021FA02F10CE002F11402D8BFC2F1200C01FA02F120FA0CFCDCBF41EA0C019040E41AA2BF01EB0451294330BD31
:403480006FEA04041F3C1CDA0C340EDC04F11404C4F1200220FA04F001FA02F340EA030021FA04F345EA030130BDC4F10C04C4F1200220FA02F001FA04F340EA03002946B9
:4034C00030BD21FA04F0294630BD94F0000F83F4801306BF81F480110134013D4EE77FEA645C18BF7FEA655C29D094EA050F08BF90EA020F05D054EA000C04BF19461046C6
:4035000030BD91EA030F1EBF0021002030BD5FEA545C05D14000494128BF41F0004130BD14F580043CBF01F5801130BD01F0004545F0FE4141F470014FF0000030BD7FEA46
:40354000645C1ABF194610467FEA655C1CBF0B46024650EA013406BF52EA033591EA030F41F4002130BD00BF90F0000F04BF0021704730B54FF4806404F132044FF0000583
:403580004FF0000150E700BF90F0000F04BF0021704730B54FF4806404F1320410F0004548BF40424FF000013EE700BF42004FEAE2014FEA31014FEA02701FBF12F07F436C
:4035C00093F07F4F81F06051704792F0000F14BF93F07F4F704730B54FF4607401F0004521F0004120E700BF50EA010208BF704730B54FF000050AE050EA010208BF704762
:4036000030B511F0004502D5404261EB41014FF4806404F132045FEA915C3FF4DCAE4FF003025FEADC0C18BF03325FEADC0C18BF033202EBDC02C2F1200300FA03FC20FAC1
:4036400002F001FA03FE40EA0E0021FA02F11444C1E600BF70B54FF0FF0C4CF4E06C1CEA11541DBF1CEA135594EA0C0F95EA0C0F00F0DEF82C4481EA030621EA4C5123EA16
:403680004C5350EA013518BF52EA033541F4801143F4801338D0A0FB02CE4FF00005E1FB02E506F00042E0FB03E54FF00006E1FB03569CF0000F18BF4EF0010EA4F1FF04DA
:4036C000B6F5007F64F5407404D25FEA4E0E6D4146EB060642EAC62141EA55514FEAC52040EA5E504FEACE2EB4F1FD0C88BFBCF5E06F1ED8BEF1004F08BF5FEA500E50F186
:40370000000041EB045170BD06F0004646EA010140EA020081EA0301B4EB5C04C2BFD4EB0C0541EA045170BD41F480114FF0000E013C00F3AB8014F1360FDEBF002001F06F
:40374000004170BDC4F10004203C35DA0C341BDC04F11404C4F1200500FA05F320FA04F001FA05F240EA020001F0004221F0004110EBD37021FA04F642EB06015EEA430ED6
:4037800008BF20EAD37070BDC4F10C04C4F1200500FA04F320FA05F001FA04F240EA020001F0004110EBD37041F100015EEA430E08BF20EAD37070BDC4F1200500FA05F2C4
:4037C0004EEA020E20FA04F301FA05F243EA020321FA04F001F0004121FA04F220EA020000EBD3705EEA430E08BF20EAD37070BD94F0000F0FD101F00046400041EB0101CE
:4038000011F4801F08BF013CF7D041EA060195F0000F18BF704703F00046520043EB030313F4801F08BF013DF7D043EA0603704794EA0C0F0CEA135518BF95EA0C0F0CD063
:4038400050EA410618BF52EA4306D1D181EA030101F000414FF0000070BD50EA410606BF1046194652EA430619D094EA0C0F02D150EA013613D195EA0C0F05D152EA0336AD
:403880001CBF104619460AD181EA030101F0004141F0FE4141F470014FF0000070BD41F0FE4141F4780170BD70B54FF0FF0C4CF4E06C1CEA11541DBF1CEA135594EA0C0FE6
:4038C00095EA0C0F00F0A7F8A4EB050481EA030E52EA03354FEA013100F088804FEA03334FF0805545EA131343EA12634FEA022245EA111545EA10654FEA00260EF0004146
:403900009D4208BF964244F1FD0404F5407402D25B084FEA3202B61A65EB03055B084FEA32024FF480104FF4002CB6EB020E75EB030E22BFB61A754640EA0C005B084FEAE8
:403940003202B6EB020E75EB030E22BFB61A754640EA5C005B084FEA3202B6EB020E75EB030E22BFB61A754640EA9C005B084FEA3202B6EB020E75EB030E22BFB61A75467D
:4039800040EADC0055EA060E18D04FEA051545EA16754FEA06164FEAC30343EA52734FEAC2025FEA1C1CC0D111F4801F0BD141EA00014FF000004FF0004CB6E711F4801FAD
:4039C00004BF01430020B4F1FD0C88BFBCF5E06F3FF6AFAEB5EB030C04BFB6EB020C5FEA500C50F1000041EB045170BD0EF0004E4EEA113114EB5C04C2BFD4EB0C0541EAC3
:403A0000045170BD41F480114FF0000E013C90E645EA060E8DE60CEA135594EA0C0F08BF95EA0C0F3FF43BAF94EA0C0F0AD150EA01347FF434AF95EA0C0F7FF425AF1046A3
:403A400019462CE795EA0C0F06D152EA03353FF4FDAE1046194622E750EA410618BF52EA43067FF4C5AE50EA41047FF40DAF52EA43057FF4EBAE12E74FF0FF3C06E000BF3A
:403A80004FF0010C02E000BF4FF0010C4DF804CD4FEA410C7FEA6C5C4FEA430C18BF7FEA6C5C1BD001B050EA410C0CBF52EA430C91EA030F02BF90EA020F0020704710F146
:403AC000000F91EA030F58BF994208BF90422CBFD8176FEAE37040F0010070474FEA410C7FEA6C5C02D150EA013C07D14FEA430C7FEA6C5CD6D152EA033CD3D05DF8040B76
:403B0000704700BF8446104662468C461946634600E000BF01B5FFF7B7FF002848BF10F1000F01BD4DF808EDFFF7F4FF0CBF012000205DF808FB00BF4DF808EDFFF7EAFF10
:403B400034BF012000205DF808FB00BF4DF808EDFFF7E0FF94BF012000205DF808FB00BF4DF808EDFFF7CEFF94BF012000205DF808FB00BF4DF808EDFFF7C4FF34BF012091
:403B800000205DF808FB00BF4FEA410212F5001215D211D56FF47873B3EB625212D94FEAC12343F0004343EA505311F0004F23FA02F018BF404270474FF00000704750EADF
:403BC000013005D111F0004008BF6FF0004070474FF00000704700BF014B1868704700BF4081FF1F0E4B70B51E460E4C0025E41AA410A54204D056F8253098470135F8E725
:403C000000F084FA084B094C1E46E41AA4100025A54204D056F8253098470135F8E770BD1841000018410000184100002041000010B5431E0A44914204D011F8014B03F8DD
:403C4000014FF8E710BD03460244934202D003F8011BFAE77047024610B513461C780132002CFAD1013B11F8012B03F8012F002AF9D110BD034611F8012B03F8012B002A13
:403C8000F9D17047034613F8012B002AFBD1181A01387047000000000000000055415254206572720000000020202020202020200000000020202020202020200000000046
:403CC000534F53004245414D53000000436F75636F75203A2D2900004175207265766F69722021002B2D2B2055724C6162202B2D2B000000536369656E7469612076696EE2
:403D0000636572652074656E65627261730000004F2042656C67697175652E2E2E000000416C6C6F203F0000434920212043492021204349202120532A7820262063686F06
:403D400070657320210000004F6E652054776F2054687265652056697661206C27416C67657269652021000048656C6C6F20576F726C642021000000202F20002D2E2E2E40
:403D8000000000002D2E2D2E000000002D2E2E002E2E2D2E000000002D2D2E002E2E2E2E000000002E2D2D2D000000002D2E2D002E2D2E2E000000002D2D2D002E2D2D2E9C
:403DC000000000002D2D2E2D000000002E2D2E002E2E2E002E2E2E2D000000002E2D2D002D2E2E2D000000002D2E2D2D000000002D2D2E2E000000002D2D2D2D2D000000BA
:403E00002E2D2D2D2D0000002E2E2D2D2D0000002E2E2E2D2D0000002E2E2E2E2D0000002E2E2E2E2E0000002D2E2E2E2E0000002D2D2E2E2E0000002D2D2D2E2E00000062
:403E40002D2D2D2D2E0000002E2D2E2D2E2D00002D2D2E2E2D2D00002E2E2D2D2E2E00002E2D2D2D2D2E00002D2E2D2E2D2D2D2D2D2E00002D2E2E2D2E0000002D2E2D2DBF
:403E80002E0000002D2E2D2D2E2D00002E2D2E2E2E0000002D2D2D2E2E2E00002D2E2D2E2D2E00002E2D2D2D2E0000002E2D2E2D2E0000002D2E2E2E2E2D00002E2E2D2D2E
:403EC0002E2D00002E2D2E2E2D2E00002E2E2E2D2E2E2D002E2D2D2E2D2E0000200000000D510040005B00402D510040005B004080808008035B0040244300404000000045
:403F0000004F00400C0040510040300000000140001000140140000800400140000A004C014000020050014020000000FB21F93FFB2109407CD91240FB2119407A6A1F4054
:403F40007CD92240BBFD2540FB2129403A462C407A6A2F405C4731407CD932409C6B3440BBFD3540DB8F3740FB2139401BB43A403A463C405AD83D407A6A3F404C7E40400F
:403F80005C4741406C1042407CD942408CA243409C6B4440AC344540BBFD4540CBC64640DB8F4740EB584840FB21494083F9A200444E6E00FC291500D1572700DD34F50005
:403FC00062DBC0003C999500419043006351FE00BBDEAB00B761C5003A6E2400D24D42004906E00009EA2E001C92D100EB1DFE0029B11C00E83EA700F535820044BB2E00D5
:404000009CE98400B4267000417E5F00D6913900538339009CF439008B5F840028F9BD00F81F3B00DEFF97000F980500112FEF000A5A8B006D1F6D00CF7E360009CB270044
:40404000464FB7009E663F002DEA5F00BA277500E5EBC7003D7BF100F739070092528A00FB6BEA001FB15F00085D8D00300356007BFC4600F0AB6B0020BCCF0036F49A00D4
:40408000E3A91D005E619100081BE60085996500A0145F008D40680080D8FF0027734D0006063100CA561500C9A873007BE260006B8CC00002000000030000000400000022
:4040C000060000000000000000000040FB21F93F000000002D44743E000000809846F83C0000006051CC783B00000080831BF0390000004020257A38000000802282E33686
:40410000000000001DF3693543000000F8B500BFF8BC08BC9E4670474D000000BD0F0000F8B500BFF8BC08BC9E4670472900000040410000C880FF1F80000000980300004C
:40414000000000000000E02EC05D00001800000000366E0101FFFF00000000000000000000000000000000000000000000000000000000000000000008410000000000000F
:404180000000000000000000000000000000000000000000000000000000000000000000000000000000000000000000000000000000000000000000E080FF1F0000000081
:4041C00000000000000000000000000000000000000000000000000000000000000000000000000000000000000000000000000000000000000000000000000000000000BF
:40420000000000000000000000000000000000000000000000000000000000000000000000000000000000000000000000000000000000000000000000000000000000007E
:40424000000000000000000000000000000000000000000000000000000000000000000000000000000000000000000000000000000000000000000000000000000000003E
:4042800000000000000000000000000000000000000000000000000000000000000000000000000000000000000000000000000000000000000000000000000000000000FE
:020000040003F7
:0200000480007A
:4000000001450040024F0040045200400164004004650040010501405F08014036090140010B01403F1401401E15014042160140241701406418014047190140041A01402F
:40004000091B014002400140014101400342014002430140024401400145014004460140014701400E48014004490140054C0140074D014005500140015101400C020180E3
:400080000A3609200C10780C79088972850D870D880F8938E002018002080315061C080109030A0E0B040C010E161173130C1708192A1B441E03241C260329732B04321A24
:4000C0003330340F35C0370F39283A283B803F044002460449FF4A074BFF4C404D204EF04F055008580459045A045C335D035F01604061A862406320811084738518860C21
:40010000881C89398A638BC48C218D019042947F95FF98639B019E639F66A008A404A508A80CA9E7AB18AC1FAD19AE60AFE2B060B158B31FB40FB538B610B780B980BA20ED
:40014000BB0ABE40D602D710D804D904DB04DC33DD30DF010014014002100310040805200680070209880A460F011081120613141420180419421D101F082010214022229A
:400180002408272A28012A182D202F083188321034203510370A381039403A063F2147204F0156805940680669047080720A7314C0F7C28FC42FCA2ECCEECEAFD020D608B1
:4001C000E0024030410249FF4AFF4BFF4DA04F0450185A045D015F01604062C06440654066C068C06AC06CC06EC087018B0296029A06A501AB02AE01B002B201B404B502CB
:40020000B701BF10C030C106C5D1C620C80BC9FFCAFFCBFFCDAFCE0FCF04D018D280D405D804D904DA04DB04DC11DD11DF01E040E2C0E440E540E6C0E8C0EAC0ECC0EEC009
:400240000D080F0417401C101D081F26264027082F243F244010412045084F25552057105E805F097740A702B702C260C480CA60CE60D046D220D6D0E602EE400B012701BB
:4002800031014060410249FF4AFF4BFF4DA04F04501859045A045C205D025F01604062C06440654066C068C06AC06CC06EC0860292019B01A604AA02AD01B002B401B604F7
:4002C000B701BE01C020C106C5D1C702C813C9FFCAFFCBFFCDAFCE0FCF04D018D280D405D804D904DA04DB04DC22DD22DF01E040E2C0E440E540E6C0E8C0EAC0ECC0EEC05C
:400300000004090210201204184419401B102240278029402C2030203F2040044604482849014F2050085204580859015A80710280488380C004C208C406CA48CC04CE20BC
:40034000D024D224D60BE6010101020304090610082C0A110C300E0C110216201E202010241C26222814301F3102322033013E043F054041410646C047EB483849FF4AFFE2
:400380004BFF4EF04F44500C5401580459045A045B045C035D335F0166C06A406B028011826A843785028B048C248E528F04910298029A859B019F01A437A502B030B10261
:4003C000B208B407B504B6C0B701BB08BE40BF50C024C106C203C401C5C0C6E0C80AC9FFCAFFCBFFCC62CDA0CEF0CF41D00CD418D604D804D904DA04DB04DC33DD33DF01C4
:40040000E640E702E910EA30EB10ED10EE10EF12004A03200408052107020A040D800E100F2111041420168418411A641C201D0121092289230426062B2030823220350151
:4004400039843B203D034001410543104580470248804A084D20531055015604571059025D815E1860806280630479087A20808090089184930195409666982099229A80A9
:400480009B12A006A220A508A710C0FDC2A2C474CA02CC8DCE8ED09FD224D6F1D80DB828BE14D804DF011C081F0887088804AE02B011B180B540E8023240CC109680870197
:4004C0009680E04096809F017C02DE019C02450885089C02D0019C02270156205F2067408240832096809F01C820D440D620D880E280E68087409740B620E6400808610230
:400500009C02C208D80288029C02AD02B008B408E004EA0300080C08100E1A061C08000380636300000000003C000000000000000100002D2C000C00000000002000102B99
:400540002B00200000000000807F7F0000000000E00000E01A00000000000000080018010000000000000000000000000000000000000000000000000000000000000000B7
:40058000000000000000000000000000000000000000000000000000000000000000000000000000000000000000000000000000000000000000000000000000000000003B
:4005C00000000000000000000000000000000000000000000000000000000000000000000000000000000000000000000000000000000000000000000000000000000000FB
:4006000000000000000000000000000000000000000000000000000000000000000000000000000000000000000000000000000000000000000000000000000000000000BA
:40064000000000000000000000000000000000000000000000000000000000000000000000000000000000000000000000000000000000000000000000000000000000007A
:0200000490006A
:0400000000004005B7
:0200000490105A
:04000000BC90ACAF55
:0200000490303A
:02000000839FDC
:0200000490402A
:4000000000000000000000000000000000000000000000000000000000000000000000000000000000000000000000000000000000000000000000000000000000000000C0
:400040000000000000000000000000000000000000000000000000000000000000000000000000000000000000000000000000000000000000000000000000000000000080
:400080000000000000000000000000000000000000000000000000000000000000000000000000000000000000000000000000000000000000000000000000000000000040
:4000C0000000000000000000000000000000000000000000000000000000000000000000000000000000000000000000000000000000000000000000000000000000000000
:0200000490501A
:0C00000000012E16106900012E3094083B
:00000001FF